{
  "_format": "hh-sol-artifact-1",
  "contractName": "Splitwise",
  "sourceName": "contracts/mycontract.sol",
  "abi": [
    {
      "inputs": [
        {
          "internalType": "address",
          "name": "debter",
          "type": "address"
        },
        {
          "internalType": "address",
          "name": "creditor",
          "type": "address"
        },
        {
          "internalType": "uint32",
          "name": "amount",
          "type": "uint32"
        }
      ],
      "name": "add_IOU",
      "outputs": [],
      "stateMutability": "nonpayable",
      "type": "function"
    },
    {
      "inputs": [
        {
          "internalType": "address",
          "name": "debter",
          "type": "address"
        }
      ],
      "name": "getTotalOwed",
      "outputs": [
        {
          "internalType": "uint32",
          "name": "",
          "type": "uint32"
        }
      ],
      "stateMutability": "view",
      "type": "function"
    },
    {
      "inputs": [
        {
          "internalType": "address",
          "name": "debtor",
          "type": "address"
        },
        {
          "internalType": "address",
          "name": "creditor",
          "type": "address"
        }
      ],
      "name": "lookup",
      "outputs": [
        {
          "internalType": "uint32",
          "name": "",
          "type": "uint32"
        }
      ],
      "stateMutability": "view",
      "type": "function"
    },
    {
      "inputs": [
        {
          "internalType": "address[]",
          "name": "path",
          "type": "address[]"
        },
        {
          "internalType": "uint32",
          "name": "amount",
          "type": "uint32"
        }
      ],
      "name": "reduceIOU",
      "outputs": [],
      "stateMutability": "nonpayable",
      "type": "function"
    }
  ],
  "bytecode": "0x608060405234801561001057600080fd5b50610b77806100206000396000f3fe608060405234801561001057600080fd5b506004361061004c5760003560e01c8063713584a6146100515780637385107514610081578063dc625e84146100b1578063dcba2f9f146100cd575b600080fd5b61006b600480360381019061006691906106de565b6100e9565b604051610078919061073d565b60405180910390f35b61009b60048036038101906100969190610758565b61017f565b6040516100a8919061073d565b60405180910390f35b6100cb60048036038101906100c6919061090a565b6101d8565b005b6100e760048036038101906100e29190610966565b610533565b005b60008060008473ffffffffffffffffffffffffffffffffffffffff1673ffffffffffffffffffffffffffffffffffffffff16815260200190815260200160002060008373ffffffffffffffffffffffffffffffffffffffff1673ffffffffffffffffffffffffffffffffffffffff16815260200190815260200160002060009054906101000a900463ffffffff16905092915050565b6000600160008373ffffffffffffffffffffffffffffffffffffffff1673ffffffffffffffffffffffffffffffffffffffff16815260200190815260200160002060009054906101000a900463ffffffff169050919050565b60005b600183516101e991906109f2565b811015610391578160008085848151811061020757610206610a26565b5b602002602001015173ffffffffffffffffffffffffffffffffffffffff1673ffffffffffffffffffffffffffffffffffffffff1681526020019081526020016000206000856001856102599190610a55565b8151811061026a57610269610a26565b5b602002602001015173ffffffffffffffffffffffffffffffffffffffff1673ffffffffffffffffffffffffffffffffffffffff16815260200190815260200160002060008282829054906101000a900463ffffffff166102ca9190610a89565b92506101000a81548163ffffffff021916908363ffffffff1602179055508160016000858481518110610300576102ff610a26565b5b602002602001015173ffffffffffffffffffffffffffffffffffffffff1673ffffffffffffffffffffffffffffffffffffffff16815260200190815260200160002060008282829054906101000a900463ffffffff166103609190610a89565b92506101000a81548163ffffffff021916908363ffffffff160217905550808061038990610ac1565b9150506101db565b508060008084600186516103a591906109f2565b815181106103b6576103b5610a26565b5b602002602001015173ffffffffffffffffffffffffffffffffffffffff1673ffffffffffffffffffffffffffffffffffffffff16815260200190815260200160002060008460008151811061040e5761040d610a26565b5b602002602001015173ffffffffffffffffffffffffffffffffffffffff1673ffffffffffffffffffffffffffffffffffffffff16815260200190815260200160002060008282829054906101000a900463ffffffff1661046e9190610a89565b92506101000a81548163ffffffff021916908363ffffffff160217905550806001600084600186516104a091906109f2565b815181106104b1576104b0610a26565b5b602002602001015173ffffffffffffffffffffffffffffffffffffffff1673ffffffffffffffffffffffffffffffffffffffff16815260200190815260200160002060008282829054906101000a900463ffffffff166105119190610a89565b92506101000a81548163ffffffff021916908363ffffffff1602179055505050565b806000808573ffffffffffffffffffffffffffffffffffffffff1673ffffffffffffffffffffffffffffffffffffffff16815260200190815260200160002060008473ffffffffffffffffffffffffffffffffffffffff1673ffffffffffffffffffffffffffffffffffffffff16815260200190815260200160002060008282829054906101000a900463ffffffff166105cd9190610b09565b92506101000a81548163ffffffff021916908363ffffffff16021790555080600160008573ffffffffffffffffffffffffffffffffffffffff1673ffffffffffffffffffffffffffffffffffffffff16815260200190815260200160002060008282829054906101000a900463ffffffff166106499190610b09565b92506101000a81548163ffffffff021916908363ffffffff160217905550505050565b6000604051905090565b600080fd5b600080fd5b600073ffffffffffffffffffffffffffffffffffffffff82169050919050565b60006106ab82610680565b9050919050565b6106bb816106a0565b81146106c657600080fd5b50565b6000813590506106d8816106b2565b92915050565b600080604083850312156106f5576106f4610676565b5b6000610703858286016106c9565b9250506020610714858286016106c9565b9150509250929050565b600063ffffffff82169050919050565b6107378161071e565b82525050565b6000602082019050610752600083018461072e565b92915050565b60006020828403121561076e5761076d610676565b5b600061077c848285016106c9565b91505092915050565b600080fd5b6000601f19601f8301169050919050565b7f4e487b7100000000000000000000000000000000000000000000000000000000600052604160045260246000fd5b6107d38261078a565b810181811067ffffffffffffffff821117156107f2576107f161079b565b5b80604052505050565b600061080561066c565b905061081182826107ca565b919050565b600067ffffffffffffffff8211156108315761083061079b565b5b602082029050602081019050919050565b600080fd5b600061085a61085584610816565b6107fb565b9050808382526020820190506020840283018581111561087d5761087c610842565b5b835b818110156108a6578061089288826106c9565b84526020840193505060208101905061087f565b5050509392505050565b600082601f8301126108c5576108c4610785565b5b81356108d5848260208601610847565b91505092915050565b6108e78161071e565b81146108f257600080fd5b50565b600081359050610904816108de565b92915050565b6000806040838503121561092157610920610676565b5b600083013567ffffffffffffffff81111561093f5761093e61067b565b5b61094b858286016108b0565b925050602061095c858286016108f5565b9150509250929050565b60008060006060848603121561097f5761097e610676565b5b600061098d868287016106c9565b935050602061099e868287016106c9565b92505060406109af868287016108f5565b9150509250925092565b6000819050919050565b7f4e487b7100000000000000000000000000000000000000000000000000000000600052601160045260246000fd5b60006109fd826109b9565b9150610a08836109b9565b9250828203905081811115610a2057610a1f6109c3565b5b92915050565b7f4e487b7100000000000000000000000000000000000000000000000000000000600052603260045260246000fd5b6000610a60826109b9565b9150610a6b836109b9565b9250828201905080821115610a8357610a826109c3565b5b92915050565b6000610a948261071e565b9150610a9f8361071e565b9250828203905063ffffffff811115610abb57610aba6109c3565b5b92915050565b6000610acc826109b9565b91507fffffffffffffffffffffffffffffffffffffffffffffffffffffffffffffffff8203610afe57610afd6109c3565b5b600182019050919050565b6000610b148261071e565b9150610b1f8361071e565b9250828201905063ffffffff811115610b3b57610b3a6109c3565b5b9291505056fea264697066735822122056c001e96d72b646b15aede9ff2229111183e3868aab16c1b476d8332453936564736f6c63430008110033",
  "linkReferences": {},
  "deployedLinkReferences": {}
}